{
	"contracts/test.sol": {
		"Bank": {
			"abi": [
				{
					"inputs": [
						{
							"internalType": "address",
							"name": "",
							"type": "address"
						}
					],
					"name": "accounts",
					"outputs": [
						{
							"internalType": "uint256",
							"name": "",
							"type": "uint256"
						}
					],
					"stateMutability": "view",
					"type": "function"
				},
				{
					"inputs": [],
					"name": "checkAssets",
					"outputs": [
						{
							"internalType": "uint256",
							"name": "",
							"type": "uint256"
						}
					],
					"stateMutability": "view",
					"type": "function"
				},
				{
					"inputs": [],
					"name": "deposit",
					"outputs": [],
					"stateMutability": "payable",
					"type": "function"
				},
				{
					"inputs": [
						{
							"internalType": "uint256",
							"name": "_amount",
							"type": "uint256"
						}
					],
					"name": "withDraw",
					"outputs": [],
					"stateMutability": "nonpayable",
					"type": "function"
				}
			],
			"devdoc": {
				"kind": "dev",
				"methods": {},
				"version": 1
			},
			"evm": {
				"assembly": "    /* \"contracts/test.sol\":27:555  contract Bank{\r... */\n  mstore(0x40, 0x80)\n  callvalue\n  dup1\n  iszero\n  tag_1\n  jumpi\n  0x00\n  dup1\n  revert\ntag_1:\n  pop\n  dataSize(sub_0)\n  dup1\n  dataOffset(sub_0)\n  0x00\n  codecopy\n  0x00\n  return\nstop\n\nsub_0: assembly {\n        /* \"contracts/test.sol\":27:555  contract Bank{\r... */\n      mstore(0x40, 0x80)\n      jumpi(tag_1, lt(calldatasize, 0x04))\n      shr(0xe0, calldataload(0x00))\n      dup1\n      0x14174f33\n      eq\n      tag_2\n      jumpi\n      dup1\n      0x5e5c06e2\n      eq\n      tag_3\n      jumpi\n      dup1\n      0x71aa8fd9\n      eq\n      tag_4\n      jumpi\n      dup1\n      0xd0e30db0\n      eq\n      tag_5\n      jumpi\n    tag_1:\n      0x00\n      dup1\n      revert\n        /* \"contracts/test.sol\":331:446  function withDraw(uint256 _amount) public hasFunds(_amount){\r... */\n    tag_2:\n      callvalue\n      dup1\n      iszero\n      tag_6\n      jumpi\n      0x00\n      dup1\n      revert\n    tag_6:\n      pop\n      tag_7\n      0x04\n      dup1\n      calldatasize\n      sub\n      dup2\n      add\n      swap1\n      tag_8\n      swap2\n      swap1\n      tag_9\n      jump\t// in\n    tag_8:\n      tag_10\n      jump\t// in\n    tag_7:\n      stop\n        /* \"contracts/test.sol\":49:92  mapping(address => uint256) public accounts */\n    tag_3:\n      callvalue\n      dup1\n      iszero\n      tag_11\n      jumpi\n      0x00\n      dup1\n      revert\n    tag_11:\n      pop\n      tag_12\n      0x04\n      dup1\n      calldatasize\n      sub\n      dup2\n      add\n      swap1\n      tag_13\n      swap2\n      swap1\n      tag_14\n      jump\t// in\n    tag_13:\n      tag_15\n      jump\t// in\n    tag_12:\n      mload(0x40)\n      tag_16\n      swap2\n      swap1\n      tag_17\n      jump\t// in\n    tag_16:\n      mload(0x40)\n      dup1\n      swap2\n      sub\n      swap1\n      return\n        /* \"contracts/test.sol\":454:552  function checkAssets() public view returns(uint256){\r... */\n    tag_4:\n      callvalue\n      dup1\n      iszero\n      tag_18\n      jumpi\n      0x00\n      dup1\n      revert\n    tag_18:\n      pop\n      tag_19\n      tag_20\n      jump\t// in\n    tag_19:\n      mload(0x40)\n      tag_21\n      swap2\n      swap1\n      tag_17\n      jump\t// in\n    tag_21:\n      mload(0x40)\n      dup1\n      swap2\n      sub\n      swap1\n      return\n        /* \"contracts/test.sol\":235:321  function deposit() public payable {\r... */\n    tag_5:\n      tag_22\n      tag_23\n      jump\t// in\n    tag_22:\n      stop\n        /* \"contracts/test.sol\":331:446  function withDraw(uint256 _amount) public hasFunds(_amount){\r... */\n    tag_10:\n        /* \"contracts/test.sol\":382:389  _amount */\n      dup1\n        /* \"contracts/test.sol\":163:171  accounts */\n      0x00\n        /* \"contracts/test.sol\":163:183  accounts[msg.sender] */\n      dup1\n        /* \"contracts/test.sol\":172:182  msg.sender */\n      caller\n        /* \"contracts/test.sol\":163:183  accounts[msg.sender] */\n      0xffffffffffffffffffffffffffffffffffffffff\n      and\n      0xffffffffffffffffffffffffffffffffffffffff\n      and\n      dup2\n      mstore\n      0x20\n      add\n      swap1\n      dup2\n      mstore\n      0x20\n      add\n      0x00\n      keccak256\n      sload\n        /* \"contracts/test.sol\":154:161  _amount */\n      dup2\n        /* \"contracts/test.sol\":154:183  _amount<=accounts[msg.sender] */\n      gt\n      iszero\n        /* \"contracts/test.sol\":146:207  require(_amount<=accounts[msg.sender],\" insufficient amount\") */\n      tag_25\n      jumpi\n      mload(0x40)\n      0x08c379a000000000000000000000000000000000000000000000000000000000\n      dup2\n      mstore\n      0x04\n      add\n      tag_26\n      swap1\n      tag_27\n      jump\t// in\n    tag_26:\n      mload(0x40)\n      dup1\n      swap2\n      sub\n      swap1\n      revert\n    tag_25:\n        /* \"contracts/test.sol\":409:419  msg.sender */\n      caller\n        /* \"contracts/test.sol\":401:429  payable(msg.sender).transfer */\n      0xffffffffffffffffffffffffffffffffffffffff\n      and\n        /* \"contracts/test.sol\":401:438  payable(msg.sender).transfer(_amount) */\n      0x08fc\n        /* \"contracts/test.sol\":430:437  _amount */\n      dup4\n        /* \"contracts/test.sol\":401:438  payable(msg.sender).transfer(_amount) */\n      swap1\n      dup2\n      iszero\n      mul\n      swap1\n      mload(0x40)\n      0x00\n      mload(0x40)\n      dup1\n      dup4\n      sub\n      dup2\n      dup6\n      dup9\n      dup9\n      call\n      swap4\n      pop\n      pop\n      pop\n      pop\n      iszero\n      dup1\n      iszero\n      tag_30\n      jumpi\n      returndatasize\n      0x00\n      dup1\n      returndatacopy\n      revert(0x00, returndatasize)\n    tag_30:\n      pop\n        /* \"contracts/test.sol\":331:446  function withDraw(uint256 _amount) public hasFunds(_amount){\r... */\n      pop\n      pop\n      jump\t// out\n        /* \"contracts/test.sol\":49:92  mapping(address => uint256) public accounts */\n    tag_15:\n      mstore(0x20, 0x00)\n      dup1\n      0x00\n      mstore\n      keccak256(0x00, 0x40)\n      0x00\n      swap2\n      pop\n      swap1\n      pop\n      sload\n      dup2\n      jump\t// out\n        /* \"contracts/test.sol\":454:552  function checkAssets() public view returns(uint256){\r... */\n    tag_20:\n        /* \"contracts/test.sol\":497:504  uint256 */\n      0x00\n        /* \"contracts/test.sol\":523:544  address(this).balance */\n      selfbalance\n        /* \"contracts/test.sol\":516:544  return address(this).balance */\n      swap1\n      pop\n        /* \"contracts/test.sol\":454:552  function checkAssets() public view returns(uint256){\r... */\n      swap1\n      jump\t// out\n        /* \"contracts/test.sol\":235:321  function deposit() public payable {\r... */\n    tag_23:\n        /* \"contracts/test.sol\":304:313  msg.value */\n      callvalue\n        /* \"contracts/test.sol\":280:288  accounts */\n      0x00\n        /* \"contracts/test.sol\":280:300  accounts[msg.sender] */\n      dup1\n        /* \"contracts/test.sol\":289:299  msg.sender */\n      caller\n        /* \"contracts/test.sol\":280:300  accounts[msg.sender] */\n      0xffffffffffffffffffffffffffffffffffffffff\n      and\n      0xffffffffffffffffffffffffffffffffffffffff\n      and\n      dup2\n      mstore\n      0x20\n      add\n      swap1\n      dup2\n      mstore\n      0x20\n      add\n      0x00\n      keccak256\n      0x00\n        /* \"contracts/test.sol\":280:313  accounts[msg.sender] += msg.value */\n      dup3\n      dup3\n      sload\n      tag_33\n      swap2\n      swap1\n      tag_34\n      jump\t// in\n    tag_33:\n      swap3\n      pop\n      pop\n      dup2\n      swap1\n      sstore\n      pop\n        /* \"contracts/test.sol\":235:321  function deposit() public payable {\r... */\n      jump\t// out\n        /* \"#utility.yul\":7:146   */\n    tag_36:\n        /* \"#utility.yul\":53:58   */\n      0x00\n        /* \"#utility.yul\":91:97   */\n      dup2\n        /* \"#utility.yul\":78:98   */\n      calldataload\n        /* \"#utility.yul\":69:98   */\n      swap1\n      pop\n        /* \"#utility.yul\":107:140   */\n      tag_38\n        /* \"#utility.yul\":134:139   */\n      dup2\n        /* \"#utility.yul\":107:140   */\n      tag_39\n      jump\t// in\n    tag_38:\n        /* \"#utility.yul\":7:146   */\n      swap3\n      swap2\n      pop\n      pop\n      jump\t// out\n        /* \"#utility.yul\":152:291   */\n    tag_40:\n        /* \"#utility.yul\":198:203   */\n      0x00\n        /* \"#utility.yul\":236:242   */\n      dup2\n        /* \"#utility.yul\":223:243   */\n      calldataload\n        /* \"#utility.yul\":214:243   */\n      swap1\n      pop\n        /* \"#utility.yul\":252:285   */\n      tag_42\n        /* \"#utility.yul\":279:284   */\n      dup2\n        /* \"#utility.yul\":252:285   */\n      tag_43\n      jump\t// in\n    tag_42:\n        /* \"#utility.yul\":152:291   */\n      swap3\n      swap2\n      pop\n      pop\n      jump\t// out\n        /* \"#utility.yul\":297:626   */\n    tag_14:\n        /* \"#utility.yul\":356:362   */\n      0x00\n        /* \"#utility.yul\":405:407   */\n      0x20\n        /* \"#utility.yul\":393:402   */\n      dup3\n        /* \"#utility.yul\":384:391   */\n      dup5\n        /* \"#utility.yul\":380:403   */\n      sub\n        /* \"#utility.yul\":376:408   */\n      slt\n        /* \"#utility.yul\":373:492   */\n      iszero\n      tag_45\n      jumpi\n        /* \"#utility.yul\":411:490   */\n      tag_46\n      tag_47\n      jump\t// in\n    tag_46:\n        /* \"#utility.yul\":373:492   */\n    tag_45:\n        /* \"#utility.yul\":531:532   */\n      0x00\n        /* \"#utility.yul\":556:609   */\n      tag_48\n        /* \"#utility.yul\":601:608   */\n      dup5\n        /* \"#utility.yul\":592:598   */\n      dup3\n        /* \"#utility.yul\":581:590   */\n      dup6\n        /* \"#utility.yul\":577:599   */\n      add\n        /* \"#utility.yul\":556:609   */\n      tag_36\n      jump\t// in\n    tag_48:\n        /* \"#utility.yul\":546:609   */\n      swap2\n      pop\n        /* \"#utility.yul\":502:619   */\n      pop\n        /* \"#utility.yul\":297:626   */\n      swap3\n      swap2\n      pop\n      pop\n      jump\t// out\n        /* \"#utility.yul\":632:961   */\n    tag_9:\n        /* \"#utility.yul\":691:697   */\n      0x00\n        /* \"#utility.yul\":740:742   */\n      0x20\n        /* \"#utility.yul\":728:737   */\n      dup3\n        /* \"#utility.yul\":719:726   */\n      dup5\n        /* \"#utility.yul\":715:738   */\n      sub\n        /* \"#utility.yul\":711:743   */\n      slt\n        /* \"#utility.yul\":708:827   */\n      iszero\n      tag_50\n      jumpi\n        /* \"#utility.yul\":746:825   */\n      tag_51\n      tag_47\n      jump\t// in\n    tag_51:\n        /* \"#utility.yul\":708:827   */\n    tag_50:\n        /* \"#utility.yul\":866:867   */\n      0x00\n        /* \"#utility.yul\":891:944   */\n      tag_52\n        /* \"#utility.yul\":936:943   */\n      dup5\n        /* \"#utility.yul\":927:933   */\n      dup3\n        /* \"#utility.yul\":916:925   */\n      dup6\n        /* \"#utility.yul\":912:934   */\n      add\n        /* \"#utility.yul\":891:944   */\n      tag_40\n      jump\t// in\n    tag_52:\n        /* \"#utility.yul\":881:944   */\n      swap2\n      pop\n        /* \"#utility.yul\":837:954   */\n      pop\n        /* \"#utility.yul\":632:961   */\n      swap3\n      swap2\n      pop\n      pop\n      jump\t// out\n        /* \"#utility.yul\":967:1333   */\n    tag_53:\n        /* \"#utility.yul\":1109:1112   */\n      0x00\n        /* \"#utility.yul\":1130:1197   */\n      tag_55\n        /* \"#utility.yul\":1194:1196   */\n      0x14\n        /* \"#utility.yul\":1189:1192   */\n      dup4\n        /* \"#utility.yul\":1130:1197   */\n      tag_56\n      jump\t// in\n    tag_55:\n        /* \"#utility.yul\":1123:1197   */\n      swap2\n      pop\n        /* \"#utility.yul\":1206:1299   */\n      tag_57\n        /* \"#utility.yul\":1295:1298   */\n      dup3\n        /* \"#utility.yul\":1206:1299   */\n      tag_58\n      jump\t// in\n    tag_57:\n        /* \"#utility.yul\":1324:1326   */\n      0x20\n        /* \"#utility.yul\":1319:1322   */\n      dup3\n        /* \"#utility.yul\":1315:1327   */\n      add\n        /* \"#utility.yul\":1308:1327   */\n      swap1\n      pop\n        /* \"#utility.yul\":967:1333   */\n      swap2\n      swap1\n      pop\n      jump\t// out\n        /* \"#utility.yul\":1339:1457   */\n    tag_59:\n        /* \"#utility.yul\":1426:1450   */\n      tag_61\n        /* \"#utility.yul\":1444:1449   */\n      dup2\n        /* \"#utility.yul\":1426:1450   */\n      tag_62\n      jump\t// in\n    tag_61:\n        /* \"#utility.yul\":1421:1424   */\n      dup3\n        /* \"#utility.yul\":1414:1451   */\n      mstore\n        /* \"#utility.yul\":1339:1457   */\n      pop\n      pop\n      jump\t// out\n        /* \"#utility.yul\":1463:1882   */\n    tag_27:\n        /* \"#utility.yul\":1629:1633   */\n      0x00\n        /* \"#utility.yul\":1667:1669   */\n      0x20\n        /* \"#utility.yul\":1656:1665   */\n      dup3\n        /* \"#utility.yul\":1652:1670   */\n      add\n        /* \"#utility.yul\":1644:1670   */\n      swap1\n      pop\n        /* \"#utility.yul\":1716:1725   */\n      dup2\n        /* \"#utility.yul\":1710:1714   */\n      dup2\n        /* \"#utility.yul\":1706:1726   */\n      sub\n        /* \"#utility.yul\":1702:1703   */\n      0x00\n        /* \"#utility.yul\":1691:1700   */\n      dup4\n        /* \"#utility.yul\":1687:1704   */\n      add\n        /* \"#utility.yul\":1680:1727   */\n      mstore\n        /* \"#utility.yul\":1744:1875   */\n      tag_64\n        /* \"#utility.yul\":1870:1874   */\n      dup2\n        /* \"#utility.yul\":1744:1875   */\n      tag_53\n      jump\t// in\n    tag_64:\n        /* \"#utility.yul\":1736:1875   */\n      swap1\n      pop\n        /* \"#utility.yul\":1463:1882   */\n      swap2\n      swap1\n      pop\n      jump\t// out\n        /* \"#utility.yul\":1888:2110   */\n    tag_17:\n        /* \"#utility.yul\":1981:1985   */\n      0x00\n        /* \"#utility.yul\":2019:2021   */\n      0x20\n        /* \"#utility.yul\":2008:2017   */\n      dup3\n        /* \"#utility.yul\":2004:2022   */\n      add\n        /* \"#utility.yul\":1996:2022   */\n      swap1\n      pop\n        /* \"#utility.yul\":2032:2103   */\n      tag_66\n        /* \"#utility.yul\":2100:2101   */\n      0x00\n        /* \"#utility.yul\":2089:2098   */\n      dup4\n        /* \"#utility.yul\":2085:2102   */\n      add\n        /* \"#utility.yul\":2076:2082   */\n      dup5\n        /* \"#utility.yul\":2032:2103   */\n      tag_59\n      jump\t// in\n    tag_66:\n        /* \"#utility.yul\":1888:2110   */\n      swap3\n      swap2\n      pop\n      pop\n      jump\t// out\n        /* \"#utility.yul\":2197:2366   */\n    tag_56:\n        /* \"#utility.yul\":2281:2292   */\n      0x00\n        /* \"#utility.yul\":2315:2321   */\n      dup3\n        /* \"#utility.yul\":2310:2313   */\n      dup3\n        /* \"#utility.yul\":2303:2322   */\n      mstore\n        /* \"#utility.yul\":2355:2359   */\n      0x20\n        /* \"#utility.yul\":2350:2353   */\n      dup3\n        /* \"#utility.yul\":2346:2360   */\n      add\n        /* \"#utility.yul\":2331:2360   */\n      swap1\n      pop\n        /* \"#utility.yul\":2197:2366   */\n      swap3\n      swap2\n      pop\n      pop\n      jump\t// out\n        /* \"#utility.yul\":2372:2677   */\n    tag_34:\n        /* \"#utility.yul\":2412:2415   */\n      0x00\n        /* \"#utility.yul\":2431:2451   */\n      tag_71\n        /* \"#utility.yul\":2449:2450   */\n      dup3\n        /* \"#utility.yul\":2431:2451   */\n      tag_62\n      jump\t// in\n    tag_71:\n        /* \"#utility.yul\":2426:2451   */\n      swap2\n      pop\n        /* \"#utility.yul\":2465:2485   */\n      tag_72\n        /* \"#utility.yul\":2483:2484   */\n      dup4\n        /* \"#utility.yul\":2465:2485   */\n      tag_62\n      jump\t// in\n    tag_72:\n        /* \"#utility.yul\":2460:2485   */\n      swap3\n      pop\n        /* \"#utility.yul\":2619:2620   */\n      dup3\n        /* \"#utility.yul\":2551:2617   */\n      0xffffffffffffffffffffffffffffffffffffffffffffffffffffffffffffffff\n        /* \"#utility.yul\":2547:2621   */\n      sub\n        /* \"#utility.yul\":2544:2545   */\n      dup3\n        /* \"#utility.yul\":2541:2622   */\n      gt\n        /* \"#utility.yul\":2538:2645   */\n      iszero\n      tag_73\n      jumpi\n        /* \"#utility.yul\":2625:2643   */\n      tag_74\n      tag_75\n      jump\t// in\n    tag_74:\n        /* \"#utility.yul\":2538:2645   */\n    tag_73:\n        /* \"#utility.yul\":2669:2670   */\n      dup3\n        /* \"#utility.yul\":2666:2667   */\n      dup3\n        /* \"#utility.yul\":2662:2671   */\n      add\n        /* \"#utility.yul\":2655:2671   */\n      swap1\n      pop\n        /* \"#utility.yul\":2372:2677   */\n      swap3\n      swap2\n      pop\n      pop\n      jump\t// out\n        /* \"#utility.yul\":2683:2779   */\n    tag_76:\n        /* \"#utility.yul\":2720:2727   */\n      0x00\n        /* \"#utility.yul\":2749:2773   */\n      tag_78\n        /* \"#utility.yul\":2767:2772   */\n      dup3\n        /* \"#utility.yul\":2749:2773   */\n      tag_79\n      jump\t// in\n    tag_78:\n        /* \"#utility.yul\":2738:2773   */\n      swap1\n      pop\n        /* \"#utility.yul\":2683:2779   */\n      swap2\n      swap1\n      pop\n      jump\t// out\n        /* \"#utility.yul\":2785:2911   */\n    tag_79:\n        /* \"#utility.yul\":2822:2829   */\n      0x00\n        /* \"#utility.yul\":2862:2904   */\n      0xffffffffffffffffffffffffffffffffffffffff\n        /* \"#utility.yul\":2855:2860   */\n      dup3\n        /* \"#utility.yul\":2851:2905   */\n      and\n        /* \"#utility.yul\":2840:2905   */\n      swap1\n      pop\n        /* \"#utility.yul\":2785:2911   */\n      swap2\n      swap1\n      pop\n      jump\t// out\n        /* \"#utility.yul\":2917:2994   */\n    tag_62:\n        /* \"#utility.yul\":2954:2961   */\n      0x00\n        /* \"#utility.yul\":2983:2988   */\n      dup2\n        /* \"#utility.yul\":2972:2988   */\n      swap1\n      pop\n        /* \"#utility.yul\":2917:2994   */\n      swap2\n      swap1\n      pop\n      jump\t// out\n        /* \"#utility.yul\":3000:3180   */\n    tag_75:\n        /* \"#utility.yul\":3048:3125   */\n      0x4e487b7100000000000000000000000000000000000000000000000000000000\n        /* \"#utility.yul\":3045:3046   */\n      0x00\n        /* \"#utility.yul\":3038:3126   */\n      mstore\n        /* \"#utility.yul\":3145:3149   */\n      0x11\n        /* \"#utility.yul\":3142:3143   */\n      0x04\n        /* \"#utility.yul\":3135:3150   */\n      mstore\n        /* \"#utility.yul\":3169:3173   */\n      0x24\n        /* \"#utility.yul\":3166:3167   */\n      0x00\n        /* \"#utility.yul\":3159:3174   */\n      revert\n        /* \"#utility.yul\":3309:3426   */\n    tag_47:\n        /* \"#utility.yul\":3418:3419   */\n      0x00\n        /* \"#utility.yul\":3415:3416   */\n      dup1\n        /* \"#utility.yul\":3408:3420   */\n      revert\n        /* \"#utility.yul\":3432:3602   */\n    tag_58:\n        /* \"#utility.yul\":3572:3594   */\n      0x20696e73756666696369656e7420616d6f756e74000000000000000000000000\n        /* \"#utility.yul\":3568:3569   */\n      0x00\n        /* \"#utility.yul\":3560:3566   */\n      dup3\n        /* \"#utility.yul\":3556:3570   */\n      add\n        /* \"#utility.yul\":3549:3595   */\n      mstore\n        /* \"#utility.yul\":3432:3602   */\n      pop\n      jump\t// out\n        /* \"#utility.yul\":3608:3730   */\n    tag_39:\n        /* \"#utility.yul\":3681:3705   */\n      tag_88\n        /* \"#utility.yul\":3699:3704   */\n      dup2\n        /* \"#utility.yul\":3681:3705   */\n      tag_76\n      jump\t// in\n    tag_88:\n        /* \"#utility.yul\":3674:3679   */\n      dup2\n        /* \"#utility.yul\":3671:3706   */\n      eq\n        /* \"#utility.yul\":3661:3724   */\n      tag_89\n      jumpi\n        /* \"#utility.yul\":3720:3721   */\n      0x00\n        /* \"#utility.yul\":3717:3718   */\n      dup1\n        /* \"#utility.yul\":3710:3722   */\n      revert\n        /* \"#utility.yul\":3661:3724   */\n    tag_89:\n        /* \"#utility.yul\":3608:3730   */\n      pop\n      jump\t// out\n        /* \"#utility.yul\":3736:3858   */\n    tag_43:\n        /* \"#utility.yul\":3809:3833   */\n      tag_91\n        /* \"#utility.yul\":3827:3832   */\n      dup2\n        /* \"#utility.yul\":3809:3833   */\n      tag_62\n      jump\t// in\n    tag_91:\n        /* \"#utility.yul\":3802:3807   */\n      dup2\n        /* \"#utility.yul\":3799:3834   */\n      eq\n        /* \"#utility.yul\":3789:3852   */\n      tag_92\n      jumpi\n        /* \"#utility.yul\":3848:3849   */\n      0x00\n        /* \"#utility.yul\":3845:3846   */\n      dup1\n        /* \"#utility.yul\":3838:3850   */\n      revert\n        /* \"#utility.yul\":3789:3852   */\n    tag_92:\n        /* \"#utility.yul\":3736:3858   */\n      pop\n      jump\t// out\n\n    auxdata: 0xa26469706673582212202ba93734031a120de3313349af7d51dba3459e0b5ff69d26a8d2a449567f56c564736f6c63430008070033\n}\n",
				"bytecode": {
					"linkReferences": {},
					"object": "608060405234801561001057600080fd5b50610478806100206000396000f3fe60806040526004361061003f5760003560e01c806314174f33146100445780635e5c06e21461006d57806371aa8fd9146100aa578063d0e30db0146100d5575b600080fd5b34801561005057600080fd5b5061006b6004803603810190610066919061027a565b6100df565b005b34801561007957600080fd5b50610094600480360381019061008f919061024d565b6101ac565b6040516100a191906102f9565b60405180910390f35b3480156100b657600080fd5b506100bf6101c4565b6040516100cc91906102f9565b60405180910390f35b6100dd6101cc565b005b806000803373ffffffffffffffffffffffffffffffffffffffff1673ffffffffffffffffffffffffffffffffffffffff16815260200190815260200160002054811115610161576040517f08c379a0000000000000000000000000000000000000000000000000000000008152600401610158906102d9565b60405180910390fd5b3373ffffffffffffffffffffffffffffffffffffffff166108fc839081150290604051600060405180830381858888f193505050501580156101a7573d6000803e3d6000fd5b505050565b60006020528060005260406000206000915090505481565b600047905090565b346000803373ffffffffffffffffffffffffffffffffffffffff1673ffffffffffffffffffffffffffffffffffffffff168152602001908152602001600020600082825461021a9190610325565b92505081905550565b60008135905061023281610414565b92915050565b6000813590506102478161042b565b92915050565b600060208284031215610263576102626103e6565b5b600061027184828501610223565b91505092915050565b6000602082840312156102905761028f6103e6565b5b600061029e84828501610238565b91505092915050565b60006102b4601483610314565b91506102bf826103eb565b602082019050919050565b6102d3816103ad565b82525050565b600060208201905081810360008301526102f2816102a7565b9050919050565b600060208201905061030e60008301846102ca565b92915050565b600082825260208201905092915050565b6000610330826103ad565b915061033b836103ad565b9250827fffffffffffffffffffffffffffffffffffffffffffffffffffffffffffffffff038211156103705761036f6103b7565b5b828201905092915050565b60006103868261038d565b9050919050565b600073ffffffffffffffffffffffffffffffffffffffff82169050919050565b6000819050919050565b7f4e487b7100000000000000000000000000000000000000000000000000000000600052601160045260246000fd5b600080fd5b7f20696e73756666696369656e7420616d6f756e74000000000000000000000000600082015250565b61041d8161037b565b811461042857600080fd5b50565b610434816103ad565b811461043f57600080fd5b5056fea26469706673582212202ba93734031a120de3313349af7d51dba3459e0b5ff69d26a8d2a449567f56c564736f6c63430008070033",
					"opcodes": "PUSH1 0x80 PUSH1 0x40 MSTORE CALLVALUE DUP1 ISZERO PUSH2 0x10 JUMPI PUSH1 0x0 DUP1 REVERT JUMPDEST POP PUSH2 0x478 DUP1 PUSH2 0x20 PUSH1 0x0 CODECOPY PUSH1 0x0 RETURN INVALID PUSH1 0x80 PUSH1 0x40 MSTORE PUSH1 0x4 CALLDATASIZE LT PUSH2 0x3F JUMPI PUSH1 0x0 CALLDATALOAD PUSH1 0xE0 SHR DUP1 PUSH4 0x14174F33 EQ PUSH2 0x44 JUMPI DUP1 PUSH4 0x5E5C06E2 EQ PUSH2 0x6D JUMPI DUP1 PUSH4 0x71AA8FD9 EQ PUSH2 0xAA JUMPI DUP1 PUSH4 0xD0E30DB0 EQ PUSH2 0xD5 JUMPI JUMPDEST PUSH1 0x0 DUP1 REVERT JUMPDEST CALLVALUE DUP1 ISZERO PUSH2 0x50 JUMPI PUSH1 0x0 DUP1 REVERT JUMPDEST POP PUSH2 0x6B PUSH1 0x4 DUP1 CALLDATASIZE SUB DUP2 ADD SWAP1 PUSH2 0x66 SWAP2 SWAP1 PUSH2 0x27A JUMP JUMPDEST PUSH2 0xDF JUMP JUMPDEST STOP JUMPDEST CALLVALUE DUP1 ISZERO PUSH2 0x79 JUMPI PUSH1 0x0 DUP1 REVERT JUMPDEST POP PUSH2 0x94 PUSH1 0x4 DUP1 CALLDATASIZE SUB DUP2 ADD SWAP1 PUSH2 0x8F SWAP2 SWAP1 PUSH2 0x24D JUMP JUMPDEST PUSH2 0x1AC JUMP JUMPDEST PUSH1 0x40 MLOAD PUSH2 0xA1 SWAP2 SWAP1 PUSH2 0x2F9 JUMP JUMPDEST PUSH1 0x40 MLOAD DUP1 SWAP2 SUB SWAP1 RETURN JUMPDEST CALLVALUE DUP1 ISZERO PUSH2 0xB6 JUMPI PUSH1 0x0 DUP1 REVERT JUMPDEST POP PUSH2 0xBF PUSH2 0x1C4 JUMP JUMPDEST PUSH1 0x40 MLOAD PUSH2 0xCC SWAP2 SWAP1 PUSH2 0x2F9 JUMP JUMPDEST PUSH1 0x40 MLOAD DUP1 SWAP2 SUB SWAP1 RETURN JUMPDEST PUSH2 0xDD PUSH2 0x1CC JUMP JUMPDEST STOP JUMPDEST DUP1 PUSH1 0x0 DUP1 CALLER PUSH20 0xFFFFFFFFFFFFFFFFFFFFFFFFFFFFFFFFFFFFFFFF AND PUSH20 0xFFFFFFFFFFFFFFFFFFFFFFFFFFFFFFFFFFFFFFFF AND DUP2 MSTORE PUSH1 0x20 ADD SWAP1 DUP2 MSTORE PUSH1 0x20 ADD PUSH1 0x0 KECCAK256 SLOAD DUP2 GT ISZERO PUSH2 0x161 JUMPI PUSH1 0x40 MLOAD PUSH32 0x8C379A000000000000000000000000000000000000000000000000000000000 DUP2 MSTORE PUSH1 0x4 ADD PUSH2 0x158 SWAP1 PUSH2 0x2D9 JUMP JUMPDEST PUSH1 0x40 MLOAD DUP1 SWAP2 SUB SWAP1 REVERT JUMPDEST CALLER PUSH20 0xFFFFFFFFFFFFFFFFFFFFFFFFFFFFFFFFFFFFFFFF AND PUSH2 0x8FC DUP4 SWAP1 DUP2 ISZERO MUL SWAP1 PUSH1 0x40 MLOAD PUSH1 0x0 PUSH1 0x40 MLOAD DUP1 DUP4 SUB DUP2 DUP6 DUP9 DUP9 CALL SWAP4 POP POP POP POP ISZERO DUP1 ISZERO PUSH2 0x1A7 JUMPI RETURNDATASIZE PUSH1 0x0 DUP1 RETURNDATACOPY RETURNDATASIZE PUSH1 0x0 REVERT JUMPDEST POP POP POP JUMP JUMPDEST PUSH1 0x0 PUSH1 0x20 MSTORE DUP1 PUSH1 0x0 MSTORE PUSH1 0x40 PUSH1 0x0 KECCAK256 PUSH1 0x0 SWAP2 POP SWAP1 POP SLOAD DUP2 JUMP JUMPDEST PUSH1 0x0 SELFBALANCE SWAP1 POP SWAP1 JUMP JUMPDEST CALLVALUE PUSH1 0x0 DUP1 CALLER PUSH20 0xFFFFFFFFFFFFFFFFFFFFFFFFFFFFFFFFFFFFFFFF AND PUSH20 0xFFFFFFFFFFFFFFFFFFFFFFFFFFFFFFFFFFFFFFFF AND DUP2 MSTORE PUSH1 0x20 ADD SWAP1 DUP2 MSTORE PUSH1 0x20 ADD PUSH1 0x0 KECCAK256 PUSH1 0x0 DUP3 DUP3 SLOAD PUSH2 0x21A SWAP2 SWAP1 PUSH2 0x325 JUMP JUMPDEST SWAP3 POP POP DUP2 SWAP1 SSTORE POP JUMP JUMPDEST PUSH1 0x0 DUP2 CALLDATALOAD SWAP1 POP PUSH2 0x232 DUP2 PUSH2 0x414 JUMP JUMPDEST SWAP3 SWAP2 POP POP JUMP JUMPDEST PUSH1 0x0 DUP2 CALLDATALOAD SWAP1 POP PUSH2 0x247 DUP2 PUSH2 0x42B JUMP JUMPDEST SWAP3 SWAP2 POP POP JUMP JUMPDEST PUSH1 0x0 PUSH1 0x20 DUP3 DUP5 SUB SLT ISZERO PUSH2 0x263 JUMPI PUSH2 0x262 PUSH2 0x3E6 JUMP JUMPDEST JUMPDEST PUSH1 0x0 PUSH2 0x271 DUP5 DUP3 DUP6 ADD PUSH2 0x223 JUMP JUMPDEST SWAP2 POP POP SWAP3 SWAP2 POP POP JUMP JUMPDEST PUSH1 0x0 PUSH1 0x20 DUP3 DUP5 SUB SLT ISZERO PUSH2 0x290 JUMPI PUSH2 0x28F PUSH2 0x3E6 JUMP JUMPDEST JUMPDEST PUSH1 0x0 PUSH2 0x29E DUP5 DUP3 DUP6 ADD PUSH2 0x238 JUMP JUMPDEST SWAP2 POP POP SWAP3 SWAP2 POP POP JUMP JUMPDEST PUSH1 0x0 PUSH2 0x2B4 PUSH1 0x14 DUP4 PUSH2 0x314 JUMP JUMPDEST SWAP2 POP PUSH2 0x2BF DUP3 PUSH2 0x3EB JUMP JUMPDEST PUSH1 0x20 DUP3 ADD SWAP1 POP SWAP2 SWAP1 POP JUMP JUMPDEST PUSH2 0x2D3 DUP2 PUSH2 0x3AD JUMP JUMPDEST DUP3 MSTORE POP POP JUMP JUMPDEST PUSH1 0x0 PUSH1 0x20 DUP3 ADD SWAP1 POP DUP2 DUP2 SUB PUSH1 0x0 DUP4 ADD MSTORE PUSH2 0x2F2 DUP2 PUSH2 0x2A7 JUMP JUMPDEST SWAP1 POP SWAP2 SWAP1 POP JUMP JUMPDEST PUSH1 0x0 PUSH1 0x20 DUP3 ADD SWAP1 POP PUSH2 0x30E PUSH1 0x0 DUP4 ADD DUP5 PUSH2 0x2CA JUMP JUMPDEST SWAP3 SWAP2 POP POP JUMP JUMPDEST PUSH1 0x0 DUP3 DUP3 MSTORE PUSH1 0x20 DUP3 ADD SWAP1 POP SWAP3 SWAP2 POP POP JUMP JUMPDEST PUSH1 0x0 PUSH2 0x330 DUP3 PUSH2 0x3AD JUMP JUMPDEST SWAP2 POP PUSH2 0x33B DUP4 PUSH2 0x3AD JUMP JUMPDEST SWAP3 POP DUP3 PUSH32 0xFFFFFFFFFFFFFFFFFFFFFFFFFFFFFFFFFFFFFFFFFFFFFFFFFFFFFFFFFFFFFFFF SUB DUP3 GT ISZERO PUSH2 0x370 JUMPI PUSH2 0x36F PUSH2 0x3B7 JUMP JUMPDEST JUMPDEST DUP3 DUP3 ADD SWAP1 POP SWAP3 SWAP2 POP POP JUMP JUMPDEST PUSH1 0x0 PUSH2 0x386 DUP3 PUSH2 0x38D JUMP JUMPDEST SWAP1 POP SWAP2 SWAP1 POP JUMP JUMPDEST PUSH1 0x0 PUSH20 0xFFFFFFFFFFFFFFFFFFFFFFFFFFFFFFFFFFFFFFFF DUP3 AND SWAP1 POP SWAP2 SWAP1 POP JUMP JUMPDEST PUSH1 0x0 DUP2 SWAP1 POP SWAP2 SWAP1 POP JUMP JUMPDEST PUSH32 0x4E487B7100000000000000000000000000000000000000000000000000000000 PUSH1 0x0 MSTORE PUSH1 0x11 PUSH1 0x4 MSTORE PUSH1 0x24 PUSH1 0x0 REVERT JUMPDEST PUSH1 0x0 DUP1 REVERT JUMPDEST PUSH32 0x20696E73756666696369656E7420616D6F756E74000000000000000000000000 PUSH1 0x0 DUP3 ADD MSTORE POP JUMP JUMPDEST PUSH2 0x41D DUP2 PUSH2 0x37B JUMP JUMPDEST DUP2 EQ PUSH2 0x428 JUMPI PUSH1 0x0 DUP1 REVERT JUMPDEST POP JUMP JUMPDEST PUSH2 0x434 DUP2 PUSH2 0x3AD JUMP JUMPDEST DUP2 EQ PUSH2 0x43F JUMPI PUSH1 0x0 DUP1 REVERT JUMPDEST POP JUMP INVALID LOG2 PUSH5 0x6970667358 0x22 SLT KECCAK256 0x2B 0xA9 CALLDATACOPY CALLVALUE SUB BYTE SLT 0xD 0xE3 BALANCE CALLER 0x49 0xAF PUSH30 0x51DBA3459E0B5FF69D26A8D2A449567F56C564736F6C6343000807003300 "
				},
				"gasEstimates": {
					"creation": {
						"codeDepositCost": "228800",
						"executionCost": "269",
						"totalCost": "229069"
					},
					"external": {
						"accounts(address)": "2814",
						"checkAssets()": "361",
						"deposit()": "infinite",
						"withDraw(uint256)": "infinite"
					}
				},
				"methodIdentifiers": {
					"accounts(address)": "5e5c06e2",
					"checkAssets()": "71aa8fd9",
					"deposit()": "d0e30db0",
					"withDraw(uint256)": "14174f33"
				}
			},
			"storageLayout": {
				"storage": [
					{
						"astId": 5,
						"contract": "contracts/test.sol:Bank",
						"label": "accounts",
						"offset": 0,
						"slot": "0",
						"type": "t_mapping(t_address,t_uint256)"
					}
				],
				"types": {
					"t_address": {
						"encoding": "inplace",
						"label": "address",
						"numberOfBytes": "20"
					},
					"t_mapping(t_address,t_uint256)": {
						"encoding": "mapping",
						"key": "t_address",
						"label": "mapping(address => uint256)",
						"numberOfBytes": "32",
						"value": "t_uint256"
					},
					"t_uint256": {
						"encoding": "inplace",
						"label": "uint256",
						"numberOfBytes": "32"
					}
				}
			},
			"userdoc": {
				"kind": "user",
				"methods": {},
				"version": 1
			}
		}
	}
}